:1000000023C03DC03CC03BC03AC069C238C037C005
:1000100036C035C034C033C032C031C030C0010238
:100020000000040000000000010204081020200469
:100030001008020202020202020202020000000094
:10004000380000000000370011241FBECFE5D2E0C9
:10005000DEBFCDBF10E0A0E6B0E0E6E6F9E002C00A
:1000600005900D92A838B107D9F720E0A8E8B0E0D4
:1000700001C01D92A439B207E1F7E8D272C4C0CF23
:1000800085B7877E806185BF85B7806285BF85B76C
:10009000806285BF889585B78F7D85BF85B78F7D49
:1000A00085BF0895FF920F931F93CF93DF938B012A
:1000B00024E130E0B90108D397FF04C0A901481B2F
:1000C000590BCA01FC01F595E795EC01C170DD27DC
:1000D000E458FF4FF080D18161E06C278F2DCAD1A9
:1000E0006C2F8D2FC7D161E08F2D8BD161E08D2FCB
:1000F00088D1C80187D260E08F2D83D160E08D2F39
:1001000080D160E08F2DB6D160E08D2FDF91CF914F
:100110001F910F91FF90AEC1CF93DF93C0E0D0E06D
:100120006091680070916900CE01BCDF2196C431F6
:10013000D105B1F780916800909169006CEE7FEF76
:10014000B2D287579C4E5ED22091670080916800A2
:1001500090916900222341F08A3F910514F40196A1
:1001600007C0109267000CC08230910534F00197EF
:10017000909369008093680003C081E080936700DA
:10018000DF91CF9108950F931F93CF93DF93209129
:10019000650030916600223331054CF0243631057C
:1001A0001CF40EEC020F04C006E9021B01C005E0BE
:1001B000C0E0D0E010E0B801CE0174DF2196C43178
:1001C000D105C9F7C8016CEE7FEF6DD287519C4F06
:1001D00019D22091640080916500909166002223DD
:1001E00041F08639910514F4019607C0109264001D
:1001F0000CC08230910534F0019790936600809393
:10020000650003C081E080936400DF91CF911F916E
:100210000F9108950F931F93CF93DF938C01EB0100
:1002200064E170E080E090E01BD2862FB80190E09E
:1002300039DFBE01882777FD8095982FDF91CF9118
:100240001F910F91BAC164E170E088EB9BE0E2CFAF
:100250000F931F93CF93DF93EC018A018091880065
:10026000909189001FDF20918800309189002C0F28
:100270003D1F37FD05C0309389002093880006C0DC
:1002800083E190E0909389008093880080918800BA
:1002900090918900449724F0109289001092880070
:1002A000B801882777FD8095982FDF91CF911F9116
:1002B0000F9183C144E150E068EB7BE081E090E086
:1002C000C7CF44E150E068EB7BE08FEF9FEFC0CFFA
:1002D00040E050E064EF71E081E090E0B9CFAF9290
:1002E000BF92CF92DF92EF92FF920F931F93CF9323
:1002F000DF938C010E5C1F4FC2E3D0E07C0125E947
:10030000E20EF11C6CE3C62ED12C75E0A72EB12CA9
:10031000E016F106ECF0CE01D7FF04C0882799273C
:100320008C1B9D0BB601681B790BCB01BCD197FDD3
:1003300003969C013595279535952795C801B501FC
:10034000C3D1CB01B901AEDE0B5F1F4F2597E0CFC4
:10035000DF91CF911F910F91FF90EF90DF90CF90A1
:10036000BF90AF90089580916A0090916B00B7DFC5
:1003700080916A0090916B00019664E670E0A4D1D0
:1003800090936B0080936A000895379804B601FE3D
:100390000DC081E090E0CFD2877080938A00682FF3
:1003A00070E06F5F7F4F6770772703C010928A00FD
:1003B00061E081E090E0C7C2E0918A00F0E0EE0FDA
:1003C000FF1FE459FF4F0190F081E02D0994823026
:1003D00081F018F4813051F00895833019F08430A1
:1003E00009F008958CB58F7D8CBD08958AB58F77FF
:1003F00002C08AB58F7D8ABD08958CB580648CBD9E
:100400000895CF93DF9390E0FC01E85DFF4F2491C6
:10041000FC01EE5CFF4F8491882349F190E0880F46
:10042000991FFC01EE5BFF4FA591B491845C9F4F37
:10043000FC01C591D4919FB7611108C0F8948C91CB
:10044000209582238C93888182230AC0623051F4E4
:10045000F8948C91322F309583238C938881822B52
:10046000888304C0F8948C91822B8C939FBFDF917A
:10047000CF9108950F931F93CF93DF931F92CDB722
:10048000DEB7282F30E0F901E25EFF4F8491F901D9
:10049000E85DFF4F1491F901EE5CFF4F04910023DA
:1004A000C1F0882319F0698392DF6981E02FF0E0C1
:1004B000EE0FFF1FE45CFF4FA591B4919FB7F89436
:1004C0008C91611103C01095812301C0812B8C9305
:1004D0009FBF0F90DF91CF911F910F9108951F92B1
:1004E0000F920FB60F9211242F933F938F939F93E8
:1004F000AF93BF9380918C0090918D00A0918E005E
:10050000B0918F0030918B0026E0230F2D3720F41F
:100510000296A11DB11D05C029E8230F0396A11D58
:10052000B11D20938B0080938C0090938D00A0933D
:100530008E00B0938F008091900090919100A091D7
:100540009200B09193000196A11DB11D809390007F
:1005500090939100A0939200B0939300BF91AF91BC
:100560009F918F913F912F910F900FBE0F901F90F1
:1005700018953FB7F8948091900090919100A091C8
:100580009200B091930022B708B601FE05C02F3F3C
:1005900019F00196A11DB11D3FBF6627782F892F45
:1005A0009A2F620F711D811D911D43E0660F771F09
:1005B000881F991F4A95D1F70895CF92DF92EF9245
:1005C000FF92CF93DF936B017C01D3DFEB01C1146A
:1005D000D104E104F10479F065D0CBDF6C1B7D0B15
:1005E000683E7340A0F381E0C81AD108E108F10821
:1005F000C851DC4FECCFDF91CF91FF90EF90DF90AF
:10060000CF9008958330910528F0880F991F0497A3
:100610000197F1F7089578948AB582608ABD8AB50A
:1006200081608ABD83B7826083BF83B7816083BFE7
:1006300089B7826089BF80B7826080BF80B78160E0
:1006400080BF329A319A3098379A0895E4DFD5DE28
:100650009CDEC0E0D0E0B0DE2097E9F3D1DCFBCF38
:10066000CF93DF9300D000D0CDB7DEB79B01AC01B4
:10067000611571058105910559F069833A834B83B2
:100680005C834CD129813A814B815C8130D003C09D
:1006900060E070E0CB010F900F900F900F90DF9112
:1006A000CF91089508950024552704C0080E591FBE
:1006B000880F991F009729F076956795B8F3710513
:1006C000B9F7802D952F089597FB072E16F4009407
:1006D00006D077FD08D07BD007FC05D03EF490957E
:1006E00081959F4F0895709561957F4F0895052ED0
:1006F00097FB16F400940FD057FD05D07CD007FC73
:1007000002D046F408C050954095309521953F4F52
:100710004F4F5F4F089590958095709561957F4FED
:100720008F4F9F4F089568940013E894A0E0B0E0C5
:10073000EBE9F3E01DC0EFEFE7F959016A015E2331
:10074000550FEE08FE2C87019B01AC019E23990FEB
:10075000660B762FCB0171D0CDB7DEB7EAE024C0AF
:100760002F923F924F925F926F927F928F929F92C1
:10077000AF92BF92CF92DF92EF92FF920F931F93AF
:10078000CF93DF93CDB7DEB7CA1BDB0B0FB6F89460
:10079000DEBF0FBECDBF09942A88398848885F84A0
:1007A0006E847D848C849B84AA84B984C884DF8011
:1007B000EE80FD800C811B81AA81B981CE0FD11DF5
:1007C0000FB6F894DEBF0FBECDBFED010895AA1B92
:1007D000BB1B51E107C0AA1FBB1FA617B70710F02C
:1007E000A61BB70B881F991F5A95A9F7809590955E
:1007F000BC01CD010895A1E21A2EAA1BBB1BFD016D
:100800000DC0AA1FBB1FEE1FFF1FA217B307E407EF
:10081000F50720F0A21BB30BE40BF50B661F771F47
:10082000881F991F1A9469F7609570958095909527
:100830009B01AC01BD01CF010895DF93CF939F923F
:10084000A0E49A2E0024D001E001F001169507954E
:10085000F794E794D794C794B794A79448F4106892
:10086000A20FB31FC41FD51FE61FF71F081E191EB6
:10087000220F331F441F551F661F771F881F991FA4
:100880009A9421F79D01AE01BF01C00111249F90F0
:10089000CF91DF910895A0E0B0E0E0E5F4E066CF0D
:1008A000EC01688179818A819B81611571058105DF
:1008B000910521F464E279ED8BE597E02DE133EFCA
:1008C00041E050E014DF49015A0127EA31E440E0F9
:1008D00050E029DF69017A01C501B4012CEE34EF43
:1008E0004FEF5FEF20DF89019A01C00ED11EE21E9B
:1008F000F31EF7FE06C081E0C81AD108E10880E8BF
:10090000F80AC882D982EA82FB82C701B6019F77C2
:10091000CDB7DEB7ECE046CFBEDF089580E690E0CD
:10092000BADF089560936000709361008093620065
:10093000909363000895E199FECF9FBB8EBBE09A30
:1009400099278DB30895262FE199FECF1CBA9FBB3E
:100950008EBB2DBB0FB6F894E29AE19A0FBE0196BA
:060960000895F894FFCF9A
:1009660001000000010500010500320040002301DE
:1009760061015A016801B3018C00C3000001020342
:0809860004000204010300005B
:00000001FF
